{
  "_format": "hh-sol-artifact-1",
  "contractName": "NFTopia",
  "sourceName": "contracts/NFT.sol",
  "abi": [
    {
      "inputs": [
        {
          "internalType": "string",
          "name": "name",
          "type": "string"
        },
        {
          "internalType": "string",
          "name": "symbol",
          "type": "string"
        },
        {
          "internalType": "uint256",
          "name": "_royaltyFee",
          "type": "uint256"
        }
      ],
      "stateMutability": "nonpayable",
      "type": "constructor"
    },
    {
      "inputs": [
        {
          "internalType": "address",
          "name": "sender",
          "type": "address"
        },
        {
          "internalType": "uint256",
          "name": "tokenId",
          "type": "uint256"
        },
        {
          "internalType": "address",
          "name": "owner",
          "type": "address"
        }
      ],
      "name": "ERC721IncorrectOwner",
      "type": "error"
    },
    {
      "inputs": [
        {
          "internalType": "address",
          "name": "operator",
          "type": "address"
        },
        {
          "internalType": "uint256",
          "name": "tokenId",
          "type": "uint256"
        }
      ],
      "name": "ERC721InsufficientApproval",
      "type": "error"
    },
    {
      "inputs": [
        {
          "internalType": "address",
          "name": "approver",
          "type": "address"
        }
      ],
      "name": "ERC721InvalidApprover",
      "type": "error"
    },
    {
      "inputs": [
        {
          "internalType": "address",
          "name": "operator",
          "type": "address"
        }
      ],
      "name": "ERC721InvalidOperator",
      "type": "error"
    },
    {
      "inputs": [
        {
          "internalType": "address",
          "name": "owner",
          "type": "address"
        }
      ],
      "name": "ERC721InvalidOwner",
      "type": "error"
    },
    {
      "inputs": [
        {
          "internalType": "address",
          "name": "receiver",
          "type": "address"
        }
      ],
      "name": "ERC721InvalidReceiver",
      "type": "error"
    },
    {
      "inputs": [
        {
          "internalType": "address",
          "name": "sender",
          "type": "address"
        }
      ],
      "name": "ERC721InvalidSender",
      "type": "error"
    },
    {
      "inputs": [
        {
          "internalType": "uint256",
          "name": "tokenId",
          "type": "uint256"
        }
      ],
      "name": "ERC721NonexistentToken",
      "type": "error"
    },
    {
      "inputs": [
        {
          "internalType": "address",
          "name": "owner",
          "type": "address"
        }
      ],
      "name": "OwnableInvalidOwner",
      "type": "error"
    },
    {
      "inputs": [
        {
          "internalType": "address",
          "name": "account",
          "type": "address"
        }
      ],
      "name": "OwnableUnauthorizedAccount",
      "type": "error"
    },
    {
      "anonymous": false,
      "inputs": [
        {
          "indexed": true,
          "internalType": "address",
          "name": "owner",
          "type": "address"
        },
        {
          "indexed": true,
          "internalType": "address",
          "name": "approved",
          "type": "address"
        },
        {
          "indexed": true,
          "internalType": "uint256",
          "name": "tokenId",
          "type": "uint256"
        }
      ],
      "name": "Approval",
      "type": "event"
    },
    {
      "anonymous": false,
      "inputs": [
        {
          "indexed": true,
          "internalType": "address",
          "name": "owner",
          "type": "address"
        },
        {
          "indexed": true,
          "internalType": "address",
          "name": "operator",
          "type": "address"
        },
        {
          "indexed": false,
          "internalType": "bool",
          "name": "approved",
          "type": "bool"
        }
      ],
      "name": "ApprovalForAll",
      "type": "event"
    },
    {
      "anonymous": false,
      "inputs": [
        {
          "indexed": false,
          "internalType": "uint256",
          "name": "_fromTokenId",
          "type": "uint256"
        },
        {
          "indexed": false,
          "internalType": "uint256",
          "name": "_toTokenId",
          "type": "uint256"
        }
      ],
      "name": "BatchMetadataUpdate",
      "type": "event"
    },
    {
      "anonymous": false,
      "inputs": [
        {
          "indexed": false,
          "internalType": "uint256",
          "name": "_tokenId",
          "type": "uint256"
        }
      ],
      "name": "MetadataUpdate",
      "type": "event"
    },
    {
      "anonymous": false,
      "inputs": [
        {
          "indexed": true,
          "internalType": "address",
          "name": "previousOwner",
          "type": "address"
        },
        {
          "indexed": true,
          "internalType": "address",
          "name": "newOwner",
          "type": "address"
        }
      ],
      "name": "OwnershipTransferred",
      "type": "event"
    },
    {
      "anonymous": false,
      "inputs": [
        {
          "indexed": false,
          "internalType": "uint256",
          "name": "id",
          "type": "uint256"
        },
        {
          "indexed": false,
          "internalType": "address",
          "name": "owner",
          "type": "address"
        },
        {
          "indexed": false,
          "internalType": "uint256",
          "name": "cost",
          "type": "uint256"
        },
        {
          "indexed": false,
          "internalType": "string",
          "name": "URI",
          "type": "string"
        },
        {
          "indexed": false,
          "internalType": "uint256",
          "name": "timestamp",
          "type": "uint256"
        }
      ],
      "name": "Sale",
      "type": "event"
    },
    {
      "anonymous": false,
      "inputs": [
        {
          "indexed": true,
          "internalType": "address",
          "name": "from",
          "type": "address"
        },
        {
          "indexed": true,
          "internalType": "address",
          "name": "to",
          "type": "address"
        },
        {
          "indexed": true,
          "internalType": "uint256",
          "name": "tokenId",
          "type": "uint256"
        }
      ],
      "name": "Transfer",
      "type": "event"
    },
    {
      "inputs": [
        {
          "internalType": "address",
          "name": "to",
          "type": "address"
        },
        {
          "internalType": "uint256",
          "name": "tokenId",
          "type": "uint256"
        }
      ],
      "name": "approve",
      "outputs": [],
      "stateMutability": "nonpayable",
      "type": "function"
    },
    {
      "inputs": [],
      "name": "artist",
      "outputs": [
        {
          "internalType": "address",
          "name": "",
          "type": "address"
        }
      ],
      "stateMutability": "view",
      "type": "function"
    },
    {
      "inputs": [
        {
          "internalType": "address",
          "name": "owner",
          "type": "address"
        }
      ],
      "name": "balanceOf",
      "outputs": [
        {
          "internalType": "uint256",
          "name": "",
          "type": "uint256"
        }
      ],
      "stateMutability": "view",
      "type": "function"
    },
    {
      "inputs": [
        {
          "internalType": "uint256",
          "name": "id",
          "type": "uint256"
        }
      ],
      "name": "buyNFT",
      "outputs": [],
      "stateMutability": "payable",
      "type": "function"
    },
    {
      "inputs": [
        {
          "internalType": "uint256",
          "name": "id",
          "type": "uint256"
        },
        {
          "internalType": "uint256",
          "name": "newPrice",
          "type": "uint256"
        }
      ],
      "name": "changePrice",
      "outputs": [
        {
          "internalType": "bool",
          "name": "",
          "type": "bool"
        }
      ],
      "stateMutability": "nonpayable",
      "type": "function"
    },
    {
      "inputs": [],
      "name": "cost",
      "outputs": [
        {
          "internalType": "uint256",
          "name": "",
          "type": "uint256"
        }
      ],
      "stateMutability": "view",
      "type": "function"
    },
    {
      "inputs": [
        {
          "internalType": "bool",
          "name": "_publicMintOpen",
          "type": "bool"
        }
      ],
      "name": "editMintWindows",
      "outputs": [],
      "stateMutability": "nonpayable",
      "type": "function"
    },
    {
      "inputs": [],
      "name": "getAllNFTs",
      "outputs": [
        {
          "components": [
            {
              "internalType": "uint256",
              "name": "id",
              "type": "uint256"
            },
            {
              "internalType": "address",
              "name": "owner",
              "type": "address"
            },
            {
              "internalType": "uint256",
              "name": "cost",
              "type": "uint256"
            },
            {
              "internalType": "string",
              "name": "title",
              "type": "string"
            },
            {
              "internalType": "string",
              "name": "description",
              "type": "string"
            },
            {
              "internalType": "string",
              "name": "metadataURI",
              "type": "string"
            },
            {
              "internalType": "uint256",
              "name": "timestamp",
              "type": "uint256"
            }
          ],
          "internalType": "struct NFTopia.Transaction[]",
          "name": "",
          "type": "tuple[]"
        }
      ],
      "stateMutability": "view",
      "type": "function"
    },
    {
      "inputs": [],
      "name": "getAllTransactions",
      "outputs": [
        {
          "components": [
            {
              "internalType": "uint256",
              "name": "id",
              "type": "uint256"
            },
            {
              "internalType": "address",
              "name": "owner",
              "type": "address"
            },
            {
              "internalType": "uint256",
              "name": "cost",
              "type": "uint256"
            },
            {
              "internalType": "string",
              "name": "title",
              "type": "string"
            },
            {
              "internalType": "string",
              "name": "description",
              "type": "string"
            },
            {
              "internalType": "string",
              "name": "metadataURI",
              "type": "string"
            },
            {
              "internalType": "uint256",
              "name": "timestamp",
              "type": "uint256"
            }
          ],
          "internalType": "struct NFTopia.Transaction[]",
          "name": "",
          "type": "tuple[]"
        }
      ],
      "stateMutability": "view",
      "type": "function"
    },
    {
      "inputs": [
        {
          "internalType": "uint256",
          "name": "tokenId",
          "type": "uint256"
        }
      ],
      "name": "getApproved",
      "outputs": [
        {
          "internalType": "address",
          "name": "",
          "type": "address"
        }
      ],
      "stateMutability": "view",
      "type": "function"
    },
    {
      "inputs": [
        {
          "internalType": "uint256",
          "name": "id",
          "type": "uint256"
        }
      ],
      "name": "getNFT",
      "outputs": [
        {
          "components": [
            {
              "internalType": "uint256",
              "name": "id",
              "type": "uint256"
            },
            {
              "internalType": "address",
              "name": "owner",
              "type": "address"
            },
            {
              "internalType": "uint256",
              "name": "cost",
              "type": "uint256"
            },
            {
              "internalType": "string",
              "name": "title",
              "type": "string"
            },
            {
              "internalType": "string",
              "name": "description",
              "type": "string"
            },
            {
              "internalType": "string",
              "name": "metadataURI",
              "type": "string"
            },
            {
              "internalType": "uint256",
              "name": "timestamp",
              "type": "uint256"
            }
          ],
          "internalType": "struct NFTopia.Transaction",
          "name": "",
          "type": "tuple"
        }
      ],
      "stateMutability": "view",
      "type": "function"
    },
    {
      "inputs": [
        {
          "internalType": "address",
          "name": "owner",
          "type": "address"
        },
        {
          "internalType": "address",
          "name": "operator",
          "type": "address"
        }
      ],
      "name": "isApprovedForAll",
      "outputs": [
        {
          "internalType": "bool",
          "name": "",
          "type": "bool"
        }
      ],
      "stateMutability": "view",
      "type": "function"
    },
    {
      "inputs": [],
      "name": "name",
      "outputs": [
        {
          "internalType": "string",
          "name": "",
          "type": "string"
        }
      ],
      "stateMutability": "view",
      "type": "function"
    },
    {
      "inputs": [
        {
          "internalType": "uint256",
          "name": "",
          "type": "uint256"
        }
      ],
      "name": "nftHolder",
      "outputs": [
        {
          "internalType": "address",
          "name": "",
          "type": "address"
        }
      ],
      "stateMutability": "view",
      "type": "function"
    },
    {
      "inputs": [],
      "name": "owner",
      "outputs": [
        {
          "internalType": "address",
          "name": "",
          "type": "address"
        }
      ],
      "stateMutability": "view",
      "type": "function"
    },
    {
      "inputs": [
        {
          "internalType": "uint256",
          "name": "tokenId",
          "type": "uint256"
        }
      ],
      "name": "ownerOf",
      "outputs": [
        {
          "internalType": "address",
          "name": "",
          "type": "address"
        }
      ],
      "stateMutability": "view",
      "type": "function"
    },
    {
      "inputs": [
        {
          "internalType": "string",
          "name": "title",
          "type": "string"
        },
        {
          "internalType": "string",
          "name": "description",
          "type": "string"
        },
        {
          "internalType": "string",
          "name": "uri",
          "type": "string"
        },
        {
          "internalType": "uint256",
          "name": "price",
          "type": "uint256"
        }
      ],
      "name": "publicMint",
      "outputs": [],
      "stateMutability": "payable",
      "type": "function"
    },
    {
      "inputs": [],
      "name": "publicMintOpen",
      "outputs": [
        {
          "internalType": "bool",
          "name": "",
          "type": "bool"
        }
      ],
      "stateMutability": "view",
      "type": "function"
    },
    {
      "inputs": [],
      "name": "renounceOwnership",
      "outputs": [],
      "stateMutability": "nonpayable",
      "type": "function"
    },
    {
      "inputs": [],
      "name": "royaltyFee",
      "outputs": [
        {
          "internalType": "uint256",
          "name": "",
          "type": "uint256"
        }
      ],
      "stateMutability": "view",
      "type": "function"
    },
    {
      "inputs": [
        {
          "internalType": "address",
          "name": "from",
          "type": "address"
        },
        {
          "internalType": "address",
          "name": "to",
          "type": "address"
        },
        {
          "internalType": "uint256",
          "name": "tokenId",
          "type": "uint256"
        }
      ],
      "name": "safeTransferFrom",
      "outputs": [],
      "stateMutability": "nonpayable",
      "type": "function"
    },
    {
      "inputs": [
        {
          "internalType": "address",
          "name": "from",
          "type": "address"
        },
        {
          "internalType": "address",
          "name": "to",
          "type": "address"
        },
        {
          "internalType": "uint256",
          "name": "tokenId",
          "type": "uint256"
        },
        {
          "internalType": "bytes",
          "name": "data",
          "type": "bytes"
        }
      ],
      "name": "safeTransferFrom",
      "outputs": [],
      "stateMutability": "nonpayable",
      "type": "function"
    },
    {
      "inputs": [
        {
          "internalType": "address",
          "name": "operator",
          "type": "address"
        },
        {
          "internalType": "bool",
          "name": "approved",
          "type": "bool"
        }
      ],
      "name": "setApprovalForAll",
      "outputs": [],
      "stateMutability": "nonpayable",
      "type": "function"
    },
    {
      "inputs": [
        {
          "internalType": "bytes4",
          "name": "interfaceId",
          "type": "bytes4"
        }
      ],
      "name": "supportsInterface",
      "outputs": [
        {
          "internalType": "bool",
          "name": "",
          "type": "bool"
        }
      ],
      "stateMutability": "view",
      "type": "function"
    },
    {
      "inputs": [],
      "name": "symbol",
      "outputs": [
        {
          "internalType": "string",
          "name": "",
          "type": "string"
        }
      ],
      "stateMutability": "view",
      "type": "function"
    },
    {
      "inputs": [
        {
          "internalType": "uint256",
          "name": "tokenId",
          "type": "uint256"
        }
      ],
      "name": "tokenURI",
      "outputs": [
        {
          "internalType": "string",
          "name": "",
          "type": "string"
        }
      ],
      "stateMutability": "view",
      "type": "function"
    },
    {
      "inputs": [],
      "name": "totalTx",
      "outputs": [
        {
          "internalType": "uint256",
          "name": "",
          "type": "uint256"
        }
      ],
      "stateMutability": "view",
      "type": "function"
    },
    {
      "inputs": [
        {
          "internalType": "address",
          "name": "from",
          "type": "address"
        },
        {
          "internalType": "address",
          "name": "to",
          "type": "address"
        },
        {
          "internalType": "uint256",
          "name": "tokenId",
          "type": "uint256"
        }
      ],
      "name": "transferFrom",
      "outputs": [],
      "stateMutability": "nonpayable",
      "type": "function"
    },
    {
      "inputs": [
        {
          "internalType": "address",
          "name": "newOwner",
          "type": "address"
        }
      ],
      "name": "transferOwnership",
      "outputs": [],
      "stateMutability": "nonpayable",
      "type": "function"
    }
  ],
  "bytecode": "0x60806040526000600a55662386f26fc10000600b556001600d60006101000a81548160ff0219169083151502179055503480156200003c57600080fd5b5060405162005028380380620050288339818101604052810190620000629190620003f7565b3383838160009081620000769190620006d2565b508060019081620000889190620006d2565b505050600073ffffffffffffffffffffffffffffffffffffffff168173ffffffffffffffffffffffffffffffffffffffff1603620001005760006040517f1e4fbdf7000000000000000000000000000000000000000000000000000000008152600401620000f79190620007fe565b60405180910390fd5b62000111816200016360201b60201c565b5033600860006101000a81548173ffffffffffffffffffffffffffffffffffffffff021916908373ffffffffffffffffffffffffffffffffffffffff160217905550806009819055505050506200081b565b6000600760009054906101000a900473ffffffffffffffffffffffffffffffffffffffff16905081600760006101000a81548173ffffffffffffffffffffffffffffffffffffffff021916908373ffffffffffffffffffffffffffffffffffffffff1602179055508173ffffffffffffffffffffffffffffffffffffffff168173ffffffffffffffffffffffffffffffffffffffff167f8be0079c531659141344cd1fd0a4f28419497f9722a3daafe3b4186f6b6457e060405160405180910390a35050565b6000604051905090565b600080fd5b600080fd5b600080fd5b600080fd5b6000601f19601f8301169050919050565b7f4e487b7100000000000000000000000000000000000000000000000000000000600052604160045260246000fd5b620002928262000247565b810181811067ffffffffffffffff82111715620002b457620002b362000258565b5b80604052505050565b6000620002c962000229565b9050620002d7828262000287565b919050565b600067ffffffffffffffff821115620002fa57620002f962000258565b5b620003058262000247565b9050602081019050919050565b60005b838110156200033257808201518184015260208101905062000315565b60008484015250505050565b6000620003556200034f84620002dc565b620002bd565b90508281526020810184848401111562000374576200037362000242565b5b6200038184828562000312565b509392505050565b600082601f830112620003a157620003a06200023d565b5b8151620003b38482602086016200033e565b91505092915050565b6000819050919050565b620003d181620003bc565b8114620003dd57600080fd5b50565b600081519050620003f181620003c6565b92915050565b60008060006060848603121562000413576200041262000233565b5b600084015167ffffffffffffffff81111562000434576200043362000238565b5b620004428682870162000389565b935050602084015167ffffffffffffffff81111562000466576200046562000238565b5b620004748682870162000389565b92505060406200048786828701620003e0565b9150509250925092565b600081519050919050565b7f4e487b7100000000000000000000000000000000000000000000000000000000600052602260045260246000fd5b60006002820490506001821680620004e457607f821691505b602082108103620004fa57620004f96200049c565b5b50919050565b60008190508160005260206000209050919050565b60006020601f8301049050919050565b600082821b905092915050565b600060088302620005647fffffffffffffffffffffffffffffffffffffffffffffffffffffffffffffffff8262000525565b62000570868362000525565b95508019841693508086168417925050509392505050565b6000819050919050565b6000620005b3620005ad620005a784620003bc565b62000588565b620003bc565b9050919050565b6000819050919050565b620005cf8362000592565b620005e7620005de82620005ba565b84845462000532565b825550505050565b600090565b620005fe620005ef565b6200060b818484620005c4565b505050565b5b81811015620006335762000627600082620005f4565b60018101905062000611565b5050565b601f82111562000682576200064c8162000500565b620006578462000515565b8101602085101562000667578190505b6200067f620006768562000515565b83018262000610565b50505b505050565b600082821c905092915050565b6000620006a76000198460080262000687565b1980831691505092915050565b6000620006c2838362000694565b9150826002028217905092915050565b620006dd8262000491565b67ffffffffffffffff811115620006f957620006f862000258565b5b620007058254620004cb565b6200071282828562000637565b600060209050601f8311600181146200074a576000841562000735578287015190505b620007418582620006b4565b865550620007b1565b601f1984166200075a8662000500565b60005b8281101562000784578489015182556001820191506020850194506020810190506200075d565b86831015620007a45784890151620007a0601f89168262000694565b8355505b6001600288020188555050505b505050505050565b600073ffffffffffffffffffffffffffffffffffffffff82169050919050565b6000620007e682620007b9565b9050919050565b620007f881620007d9565b82525050565b6000602082019050620008156000830184620007ed565b92915050565b6147fd806200082b6000396000f3fe6080604052600436106101c25760003560e01c8063715018a6116100f7578063b88d4fde11610095578063e0391b0911610064578063e0391b091461063a578063e985e9c514610665578063ea7c463e146106a2578063f2fde38b146106df576101c2565b8063b88d4fde1461057e578063b8997a97146105a7578063bcc9ca5b146105d2578063c87b56dd146105fd576101c2565b80638da5cb5b116100d15780638da5cb5b146104c257806395d89b41146104ed578063a22cb46514610518578063b3de019c14610541576101c2565b8063715018a6146104575780637220cf391461046e5780638660099914610499576101c2565b80633fe96d1b1161016457806351ed82881161013e57806351ed828814610384578063576f7ea7146103a05780636352211e146103dd57806370a082311461041a576101c2565b80633fe96d1b1461031457806342842e0e1461033057806343bc161214610359576101c2565b8063095ea7b3116101a0578063095ea7b31461026c57806313faede61461029557806323b872dd146102c057806327506f53146102e9576101c2565b806301ffc9a7146101c757806306fdde0314610204578063081812fc1461022f575b600080fd5b3480156101d357600080fd5b506101ee60048036038101906101e99190613290565b610708565b6040516101fb91906132d8565b60405180910390f35b34801561021057600080fd5b5061021961071a565b6040516102269190613383565b60405180910390f35b34801561023b57600080fd5b50610256600480360381019061025191906133db565b6107ac565b6040516102639190613449565b60405180910390f35b34801561027857600080fd5b50610293600480360381019061028e9190613490565b6107c8565b005b3480156102a157600080fd5b506102aa6107de565b6040516102b791906134df565b60405180910390f35b3480156102cc57600080fd5b506102e760048036038101906102e291906134fa565b6107e4565b005b3480156102f557600080fd5b506102fe6108e6565b60405161030b9190613721565b60405180910390f35b61032e60048036038101906103299190613878565b610b6f565b005b34801561033c57600080fd5b50610357600480360381019061035291906134fa565b610f2d565b005b34801561036557600080fd5b5061036e610f4d565b60405161037b9190613449565b60405180910390f35b61039e600480360381019061039991906133db565b610f73565b005b3480156103ac57600080fd5b506103c760048036038101906103c291906133db565b611562565b6040516103d491906139dd565b60405180910390f35b3480156103e957600080fd5b5061040460048036038101906103ff91906133db565b6117c8565b6040516104119190613449565b60405180910390f35b34801561042657600080fd5b50610441600480360381019061043c91906139ff565b6117da565b60405161044e91906134df565b60405180910390f35b34801561046357600080fd5b5061046c611894565b005b34801561047a57600080fd5b506104836118a8565b60405161049091906134df565b60405180910390f35b3480156104a557600080fd5b506104c060048036038101906104bb9190613a58565b6118ae565b005b3480156104ce57600080fd5b506104d76118d3565b6040516104e49190613449565b60405180910390f35b3480156104f957600080fd5b506105026118fd565b60405161050f9190613383565b60405180910390f35b34801561052457600080fd5b5061053f600480360381019061053a9190613a85565b61198f565b005b34801561054d57600080fd5b5061056860048036038101906105639190613ac5565b6119a5565b60405161057591906132d8565b60405180910390f35b34801561058a57600080fd5b506105a560048036038101906105a09190613ba6565b611ad0565b005b3480156105b357600080fd5b506105bc611aed565b6040516105c991906134df565b60405180910390f35b3480156105de57600080fd5b506105e7611af3565b6040516105f491906132d8565b60405180910390f35b34801561060957600080fd5b50610624600480360381019061061f91906133db565b611b06565b6040516106319190613383565b60405180910390f35b34801561064657600080fd5b5061064f611b18565b60405161065c9190613721565b60405180910390f35b34801561067157600080fd5b5061068c60048036038101906106879190613c29565b611da1565b60405161069991906132d8565b60405180910390f35b3480156106ae57600080fd5b506106c960048036038101906106c491906133db565b611e35565b6040516106d69190613449565b60405180910390f35b3480156106eb57600080fd5b50610706600480360381019061070191906139ff565b611e68565b005b600061071382611eee565b9050919050565b60606000805461072990613c98565b80601f016020809104026020016040519081016040528092919081815260200182805461075590613c98565b80156107a25780601f10610777576101008083540402835291602001916107a2565b820191906000526020600020905b81548152906001019060200180831161078557829003601f168201915b5050505050905090565b60006107b782611f4f565b506107c182611fd7565b9050919050565b6107da82826107d5612014565b61201c565b5050565b600b5481565b600073ffffffffffffffffffffffffffffffffffffffff168273ffffffffffffffffffffffffffffffffffffffff16036108565760006040517f64a0ae9200000000000000000000000000000000000000000000000000000000815260040161084d9190613449565b60405180910390fd5b600061086a8383610865612014565b61202e565b90508373ffffffffffffffffffffffffffffffffffffffff168173ffffffffffffffffffffffffffffffffffffffff16146108e0578382826040517f64283d7b0000000000000000000000000000000000000000000000000000000081526004016108d793929190613cc9565b60405180910390fd5b50505050565b60606010805480602002602001604051908101604052809291908181526020016000905b82821015610b6657838290600052602060002090600702016040518060e0016040529081600082015481526020016001820160009054906101000a900473ffffffffffffffffffffffffffffffffffffffff1673ffffffffffffffffffffffffffffffffffffffff1673ffffffffffffffffffffffffffffffffffffffff168152602001600282015481526020016003820180546109a790613c98565b80601f01602080910402602001604051908101604052809291908181526020018280546109d390613c98565b8015610a205780601f106109f557610100808354040283529160200191610a20565b820191906000526020600020905b815481529060010190602001808311610a0357829003601f168201915b50505050508152602001600482018054610a3990613c98565b80601f0160208091040260200160405190810160405280929190818152602001828054610a6590613c98565b8015610ab25780601f10610a8757610100808354040283529160200191610ab2565b820191906000526020600020905b815481529060010190602001808311610a9557829003601f168201915b50505050508152602001600582018054610acb90613c98565b80601f0160208091040260200160405190810160405280929190818152602001828054610af790613c98565b8015610b445780601f10610b1957610100808354040283529160200191610b44565b820191906000526020600020905b815481529060010190602001808311610b2757829003601f168201915b505050505081526020016006820154815250508152602001906001019061090a565b50505050905090565b60011515600d60009054906101000a900460ff16151514610bc5576040517f08c379a0000000000000000000000000000000000000000000000000000000008152600401610bbc90613d4c565b60405180910390fd5b600b54341015610c0a576040517f08c379a0000000000000000000000000000000000000000000000000000000008152600401610c0190613db8565b60405180910390fd5b610c126118d3565b73ffffffffffffffffffffffffffffffffffffffff163373ffffffffffffffffffffffffffffffffffffffff1603610c7f576040517f08c379a0000000000000000000000000000000000000000000000000000000008152600401610c7690613e24565b60405180910390fd5b6000600e83604051610c919190613e80565b90815260200160405180910390205414610ce0576040517f08c379a0000000000000000000000000000000000000000000000000000000008152600401610cd790613ee3565b60405180910390fd5b6000606460095434610cf29190613f32565b610cfc9190613fa3565b9050610d2a600860009054906101000a900473ffffffffffffffffffffffffffffffffffffffff1682612044565b610d46610d356118d3565b8234610d419190613fd4565b612044565b6000610d51846120f5565b905060116040518060e001604052808381526020013373ffffffffffffffffffffffffffffffffffffffff1681526020018581526020018881526020018781526020018681526020014281525090806001815401808255809150506001900390600052602060002090600702016000909190919091506000820151816000015560208201518160010160006101000a81548173ffffffffffffffffffffffffffffffffffffffff021916908373ffffffffffffffffffffffffffffffffffffffff160217905550604082015181600201556060820151816003019081610e3791906141b4565b506080820151816004019081610e4d91906141b4565b5060a0820151816005019081610e6391906141b4565b5060c0820151816006015550507fb9508407a6eccb191d8da3286f4173697cf95604e9ea192fe5ab7c862b5221f68133348742604051610ea7959493929190614286565b60405180910390a133600f600083815260200190815260200160002060006101000a81548173ffffffffffffffffffffffffffffffffffffffff021916908373ffffffffffffffffffffffffffffffffffffffff1602179055506001600e85604051610f139190613e80565b908152602001604051809103902081905550505050505050565b610f4883838360405180602001604052806000815250611ad0565b505050565b600860009054906101000a900473ffffffffffffffffffffffffffffffffffffffff1681565b60118181548110610f8757610f866142e0565b5b906000526020600020906007020160010160009054906101000a900473ffffffffffffffffffffffffffffffffffffffff1673ffffffffffffffffffffffffffffffffffffffff163373ffffffffffffffffffffffffffffffffffffffff1603611026576040517f08c379a000000000000000000000000000000000000000000000000000000000815260040161101d9061435b565b60405180910390fd5b6011818154811061103a576110396142e0565b5b90600052602060002090600702016002015434101561108e576040517f08c379a0000000000000000000000000000000000000000000000000000000008152600401611085906143c7565b60405180910390fd5b60006064600954346110a09190613f32565b6110aa9190613fa3565b90506110d8600860009054906101000a900473ffffffffffffffffffffffffffffffffffffffff1682612044565b611157601183815481106110ef576110ee6142e0565b5b906000526020600020906007020160010160009054906101000a900473ffffffffffffffffffffffffffffffffffffffff168260118581548110611136576111356142e0565b5b9060005260206000209060070201600201546111529190613fd4565b612044565b600a600081548092919061116a906143e7565b919050555060106040518060e00160405280600a5481526020013373ffffffffffffffffffffffffffffffffffffffff168152602001348152602001601185815481106111ba576111b96142e0565b5b906000526020600020906007020160030180546111d690613c98565b80601f016020809104026020016040519081016040528092919081815260200182805461120290613c98565b801561124f5780601f106112245761010080835404028352916020019161124f565b820191906000526020600020905b81548152906001019060200180831161123257829003601f168201915b505050505081526020016011858154811061126d5761126c6142e0565b5b9060005260206000209060070201600401805461128990613c98565b80601f01602080910402602001604051908101604052809291908181526020018280546112b590613c98565b80156113025780601f106112d757610100808354040283529160200191611302565b820191906000526020600020905b8154815290600101906020018083116112e557829003601f168201915b50505050508152602001601185815481106113205761131f6142e0565b5b9060005260206000209060070201600501805461133c90613c98565b80601f016020809104026020016040519081016040528092919081815260200182805461136890613c98565b80156113b55780601f1061138a576101008083540402835291602001916113b5565b820191906000526020600020905b81548152906001019060200180831161139857829003601f168201915b505050505081526020014281525090806001815401808255809150506001900390600052602060002090600702016000909190919091506000820151816000015560208201518160010160006101000a81548173ffffffffffffffffffffffffffffffffffffffff021916908373ffffffffffffffffffffffffffffffffffffffff16021790555060408201518160020155606082015181600301908161145c91906141b4565b50608082015181600401908161147291906141b4565b5060a082015181600501908161148891906141b4565b5060c0820151816006015550507fb9508407a6eccb191d8da3286f4173697cf95604e9ea192fe5ab7c862b5221f6600a543334601186815481106114cf576114ce6142e0565b5b9060005260206000209060070201600501426040516114f29594939291906144b3565b60405180910390a1336011838154811061150f5761150e6142e0565b5b906000526020600020906007020160010160006101000a81548173ffffffffffffffffffffffffffffffffffffffff021916908373ffffffffffffffffffffffffffffffffffffffff1602179055505050565b61156a6131d1565b6011828154811061157e5761157d6142e0565b5b90600052602060002090600702016040518060e0016040529081600082015481526020016001820160009054906101000a900473ffffffffffffffffffffffffffffffffffffffff1673ffffffffffffffffffffffffffffffffffffffff1673ffffffffffffffffffffffffffffffffffffffff1681526020016002820154815260200160038201805461161190613c98565b80601f016020809104026020016040519081016040528092919081815260200182805461163d90613c98565b801561168a5780601f1061165f5761010080835404028352916020019161168a565b820191906000526020600020905b81548152906001019060200180831161166d57829003601f168201915b505050505081526020016004820180546116a390613c98565b80601f01602080910402602001604051908101604052809291908181526020018280546116cf90613c98565b801561171c5780601f106116f15761010080835404028352916020019161171c565b820191906000526020600020905b8154815290600101906020018083116116ff57829003601f168201915b5050505050815260200160058201805461173590613c98565b80601f016020809104026020016040519081016040528092919081815260200182805461176190613c98565b80156117ae5780601f10611783576101008083540402835291602001916117ae565b820191906000526020600020905b81548152906001019060200180831161179157829003601f168201915b505050505081526020016006820154815250509050919050565b60006117d382611f4f565b9050919050565b60008073ffffffffffffffffffffffffffffffffffffffff168273ffffffffffffffffffffffffffffffffffffffff160361184d5760006040517f89c62b640000000000000000000000000000000000000000000000000000000081526004016118449190613449565b60405180910390fd5b600360008373ffffffffffffffffffffffffffffffffffffffff1673ffffffffffffffffffffffffffffffffffffffff168152602001908152602001600020549050919050565b61189c61212e565b6118a660006121b5565b565b600a5481565b6118b661212e565b80600d60006101000a81548160ff02191690831515021790555050565b6000600760009054906101000a900473ffffffffffffffffffffffffffffffffffffffff16905090565b60606001805461190c90613c98565b80601f016020809104026020016040519081016040528092919081815260200182805461193890613c98565b80156119855780601f1061195a57610100808354040283529160200191611985565b820191906000526020600020905b81548152906001019060200180831161196857829003601f168201915b5050505050905090565b6119a161199a612014565b838361227b565b5050565b60008082116119e9576040517f08c379a00000000000000000000000000000000000000000000000000000000081526004016119e090614559565b60405180910390fd5b601183815481106119fd576119fc6142e0565b5b906000526020600020906007020160010160009054906101000a900473ffffffffffffffffffffffffffffffffffffffff1673ffffffffffffffffffffffffffffffffffffffff163373ffffffffffffffffffffffffffffffffffffffff1614611a9c576040517f08c379a0000000000000000000000000000000000000000000000000000000008152600401611a93906145c5565b60405180910390fd5b8160118481548110611ab157611ab06142e0565b5b9060005260206000209060070201600201819055506001905092915050565b611adb8484846107e4565b611ae7848484846123ea565b50505050565b60095481565b600d60009054906101000a900460ff1681565b6060611b11826125a1565b9050919050565b60606011805480602002602001604051908101604052809291908181526020016000905b82821015611d9857838290600052602060002090600702016040518060e0016040529081600082015481526020016001820160009054906101000a900473ffffffffffffffffffffffffffffffffffffffff1673ffffffffffffffffffffffffffffffffffffffff1673ffffffffffffffffffffffffffffffffffffffff16815260200160028201548152602001600382018054611bd990613c98565b80601f0160208091040260200160405190810160405280929190818152602001828054611c0590613c98565b8015611c525780601f10611c2757610100808354040283529160200191611c52565b820191906000526020600020905b815481529060010190602001808311611c3557829003601f168201915b50505050508152602001600482018054611c6b90613c98565b80601f0160208091040260200160405190810160405280929190818152602001828054611c9790613c98565b8015611ce45780601f10611cb957610100808354040283529160200191611ce4565b820191906000526020600020905b815481529060010190602001808311611cc757829003601f168201915b50505050508152602001600582018054611cfd90613c98565b80601f0160208091040260200160405190810160405280929190818152602001828054611d2990613c98565b8015611d765780601f10611d4b57610100808354040283529160200191611d76565b820191906000526020600020905b815481529060010190602001808311611d5957829003601f168201915b5050505050815260200160068201548152505081526020019060010190611b3c565b50505050905090565b6000600560008473ffffffffffffffffffffffffffffffffffffffff1673ffffffffffffffffffffffffffffffffffffffff16815260200190815260200160002060008373ffffffffffffffffffffffffffffffffffffffff1673ffffffffffffffffffffffffffffffffffffffff16815260200190815260200160002060009054906101000a900460ff16905092915050565b600f6020528060005260406000206000915054906101000a900473ffffffffffffffffffffffffffffffffffffffff1681565b611e7061212e565b600073ffffffffffffffffffffffffffffffffffffffff168173ffffffffffffffffffffffffffffffffffffffff1603611ee25760006040517f1e4fbdf7000000000000000000000000000000000000000000000000000000008152600401611ed99190613449565b60405180910390fd5b611eeb816121b5565b50565b6000634906490660e01b7bffffffffffffffffffffffffffffffffffffffffffffffffffffffff1916827bffffffffffffffffffffffffffffffffffffffffffffffffffffffff19161480611f485750611f47826126b4565b5b9050919050565b600080611f5b83612796565b9050600073ffffffffffffffffffffffffffffffffffffffff168173ffffffffffffffffffffffffffffffffffffffff1603611fce57826040517f7e273289000000000000000000000000000000000000000000000000000000008152600401611fc591906134df565b60405180910390fd5b80915050919050565b60006004600083815260200190815260200160002060009054906101000a900473ffffffffffffffffffffffffffffffffffffffff169050919050565b600033905090565b61202983838360016127d3565b505050565b600061203b848484612998565b90509392505050565b60008273ffffffffffffffffffffffffffffffffffffffff168260405161206a90614616565b60006040518083038185875af1925050503d80600081146120a7576040519150601f19603f3d011682016040523d82523d6000602084013e6120ac565b606091505b50509050806120f0576040517f08c379a00000000000000000000000000000000000000000000000000000000081526004016120e790614677565b60405180910390fd5b505050565b600080600c600081548092919061210b906143e7565b91905055905061211b3382612bb2565b6121258184612bd0565b80915050919050565b612136612014565b73ffffffffffffffffffffffffffffffffffffffff166121546118d3565b73ffffffffffffffffffffffffffffffffffffffff16146121b357612177612014565b6040517f118cdaa70000000000000000000000000000000000000000000000000000000081526004016121aa9190613449565b60405180910390fd5b565b6000600760009054906101000a900473ffffffffffffffffffffffffffffffffffffffff16905081600760006101000a81548173ffffffffffffffffffffffffffffffffffffffff021916908373ffffffffffffffffffffffffffffffffffffffff1602179055508173ffffffffffffffffffffffffffffffffffffffff168173ffffffffffffffffffffffffffffffffffffffff167f8be0079c531659141344cd1fd0a4f28419497f9722a3daafe3b4186f6b6457e060405160405180910390a35050565b600073ffffffffffffffffffffffffffffffffffffffff168273ffffffffffffffffffffffffffffffffffffffff16036122ec57816040517f5b08ba180000000000000000000000000000000000000000000000000000000081526004016122e39190613449565b60405180910390fd5b80600560008573ffffffffffffffffffffffffffffffffffffffff1673ffffffffffffffffffffffffffffffffffffffff16815260200190815260200160002060008473ffffffffffffffffffffffffffffffffffffffff1673ffffffffffffffffffffffffffffffffffffffff16815260200190815260200160002060006101000a81548160ff0219169083151502179055508173ffffffffffffffffffffffffffffffffffffffff168373ffffffffffffffffffffffffffffffffffffffff167f17307eab39ab6107e8899845ad3d59bd9653f200f220920489ca2b5937696c31836040516123dd91906132d8565b60405180910390a3505050565b60008373ffffffffffffffffffffffffffffffffffffffff163b111561259b578273ffffffffffffffffffffffffffffffffffffffff1663150b7a0261242e612014565b8685856040518563ffffffff1660e01b815260040161245094939291906146ec565b6020604051808303816000875af192505050801561248c57506040513d601f19601f82011682018060405250810190612489919061474d565b60015b612510573d80600081146124bc576040519150601f19603f3d011682016040523d82523d6000602084013e6124c1565b606091505b50600081510361250857836040517f64a0ae920000000000000000000000000000000000000000000000000000000081526004016124ff9190613449565b60405180910390fd5b805181602001fd5b63150b7a0260e01b7bffffffffffffffffffffffffffffffffffffffffffffffffffffffff1916817bffffffffffffffffffffffffffffffffffffffffffffffffffffffff19161461259957836040517f64a0ae920000000000000000000000000000000000000000000000000000000081526004016125909190613449565b60405180910390fd5b505b50505050565b60606125ac82611f4f565b5060006006600084815260200190815260200160002080546125cd90613c98565b80601f01602080910402602001604051908101604052809291908181526020018280546125f990613c98565b80156126465780601f1061261b57610100808354040283529160200191612646565b820191906000526020600020905b81548152906001019060200180831161262957829003601f168201915b505050505090506000612657612c2c565b9050600081510361266c5781925050506126af565b6000825111156126a157808260405160200161268992919061477a565b604051602081830303815290604052925050506126af565b6126aa84612c43565b925050505b919050565b60007f80ac58cd000000000000000000000000000000000000000000000000000000007bffffffffffffffffffffffffffffffffffffffffffffffffffffffff1916827bffffffffffffffffffffffffffffffffffffffffffffffffffffffff1916148061277f57507f5b5e139f000000000000000000000000000000000000000000000000000000007bffffffffffffffffffffffffffffffffffffffffffffffffffffffff1916827bffffffffffffffffffffffffffffffffffffffffffffffffffffffff1916145b8061278f575061278e82612cac565b5b9050919050565b60006002600083815260200190815260200160002060009054906101000a900473ffffffffffffffffffffffffffffffffffffffff169050919050565b808061280c5750600073ffffffffffffffffffffffffffffffffffffffff168273ffffffffffffffffffffffffffffffffffffffff1614155b1561294057600061281c84611f4f565b9050600073ffffffffffffffffffffffffffffffffffffffff168373ffffffffffffffffffffffffffffffffffffffff161415801561288757508273ffffffffffffffffffffffffffffffffffffffff168173ffffffffffffffffffffffffffffffffffffffff1614155b801561289a57506128988184611da1565b155b156128dc57826040517fa9fbf51f0000000000000000000000000000000000000000000000000000000081526004016128d39190613449565b60405180910390fd5b811561293e57838573ffffffffffffffffffffffffffffffffffffffff168273ffffffffffffffffffffffffffffffffffffffff167f8c5be1e5ebec7d5bd14f71427d1e84f3dd0314c0f7b2291e5b200ac8c7c3b92560405160405180910390a45b505b836004600085815260200190815260200160002060006101000a81548173ffffffffffffffffffffffffffffffffffffffff021916908373ffffffffffffffffffffffffffffffffffffffff16021790555050505050565b6000806129a484612796565b9050600073ffffffffffffffffffffffffffffffffffffffff168373ffffffffffffffffffffffffffffffffffffffff16146129e6576129e5818486612d16565b5b600073ffffffffffffffffffffffffffffffffffffffff168173ffffffffffffffffffffffffffffffffffffffff1614612a7757612a286000856000806127d3565b6001600360008373ffffffffffffffffffffffffffffffffffffffff1673ffffffffffffffffffffffffffffffffffffffff168152602001908152602001600020600082825403925050819055505b600073ffffffffffffffffffffffffffffffffffffffff168573ffffffffffffffffffffffffffffffffffffffff1614612afa576001600360008773ffffffffffffffffffffffffffffffffffffffff1673ffffffffffffffffffffffffffffffffffffffff168152602001908152602001600020600082825401925050819055505b846002600086815260200190815260200160002060006101000a81548173ffffffffffffffffffffffffffffffffffffffff021916908373ffffffffffffffffffffffffffffffffffffffff160217905550838573ffffffffffffffffffffffffffffffffffffffff168273ffffffffffffffffffffffffffffffffffffffff167fddf252ad1be2c89b69c2b068fc378daa952ba7f163c4a11628f55a4df523b3ef60405160405180910390a4809150509392505050565b612bcc828260405180602001604052806000815250612dda565b5050565b80600660008481526020019081526020016000209081612bf091906141b4565b507ff8e1a15aba9398e019f0b49df1a4fde98ee17ae345cb5f6b5e2c27f5033e8ce782604051612c2091906134df565b60405180910390a15050565b606060405180602001604052806000815250905090565b6060612c4e82611f4f565b506000612c59612c2c565b90506000815111612c795760405180602001604052806000815250612ca4565b80612c8384612df6565b604051602001612c9492919061477a565b6040516020818303038152906040525b915050919050565b60007f01ffc9a7000000000000000000000000000000000000000000000000000000007bffffffffffffffffffffffffffffffffffffffffffffffffffffffff1916827bffffffffffffffffffffffffffffffffffffffffffffffffffffffff1916149050919050565b612d21838383612ec4565b612dd557600073ffffffffffffffffffffffffffffffffffffffff168373ffffffffffffffffffffffffffffffffffffffff1603612d9657806040517f7e273289000000000000000000000000000000000000000000000000000000008152600401612d8d91906134df565b60405180910390fd5b81816040517f177e802f000000000000000000000000000000000000000000000000000000008152600401612dcc92919061479e565b60405180910390fd5b505050565b612de48383612f85565b612df160008484846123ea565b505050565b606060006001612e058461307e565b01905060008167ffffffffffffffff811115612e2457612e2361374d565b5b6040519080825280601f01601f191660200182016040528015612e565781602001600182028036833780820191505090505b509050600082602001820190505b600115612eb9578080600190039150507f3031323334353637383961626364656600000000000000000000000000000000600a86061a8153600a8581612ead57612eac613f74565b5b04945060008503612e64575b819350505050919050565b60008073ffffffffffffffffffffffffffffffffffffffff168373ffffffffffffffffffffffffffffffffffffffff1614158015612f7c57508273ffffffffffffffffffffffffffffffffffffffff168473ffffffffffffffffffffffffffffffffffffffff161480612f3d5750612f3c8484611da1565b5b80612f7b57508273ffffffffffffffffffffffffffffffffffffffff16612f6383611fd7565b73ffffffffffffffffffffffffffffffffffffffff16145b5b90509392505050565b600073ffffffffffffffffffffffffffffffffffffffff168273ffffffffffffffffffffffffffffffffffffffff1603612ff75760006040517f64a0ae92000000000000000000000000000000000000000000000000000000008152600401612fee9190613449565b60405180910390fd5b60006130058383600061202e565b9050600073ffffffffffffffffffffffffffffffffffffffff168173ffffffffffffffffffffffffffffffffffffffff16146130795760006040517f73c6ac6e0000000000000000000000000000000000000000000000000000000081526004016130709190613449565b60405180910390fd5b505050565b600080600090507a184f03e93ff9f4daa797ed6e38ed64bf6a1f01000000000000000083106130dc577a184f03e93ff9f4daa797ed6e38ed64bf6a1f01000000000000000083816130d2576130d1613f74565b5b0492506040810190505b6d04ee2d6d415b85acef81000000008310613119576d04ee2d6d415b85acef8100000000838161310f5761310e613f74565b5b0492506020810190505b662386f26fc10000831061314857662386f26fc10000838161313e5761313d613f74565b5b0492506010810190505b6305f5e1008310613171576305f5e100838161316757613166613f74565b5b0492506008810190505b612710831061319657612710838161318c5761318b613f74565b5b0492506004810190505b606483106131b957606483816131af576131ae613f74565b5b0492506002810190505b600a83106131c8576001810190505b80915050919050565b6040518060e0016040528060008152602001600073ffffffffffffffffffffffffffffffffffffffff16815260200160008152602001606081526020016060815260200160608152602001600081525090565b6000604051905090565b600080fd5b600080fd5b60007fffffffff0000000000000000000000000000000000000000000000000000000082169050919050565b61326d81613238565b811461327857600080fd5b50565b60008135905061328a81613264565b92915050565b6000602082840312156132a6576132a561322e565b5b60006132b48482850161327b565b91505092915050565b60008115159050919050565b6132d2816132bd565b82525050565b60006020820190506132ed60008301846132c9565b92915050565b600081519050919050565b600082825260208201905092915050565b60005b8381101561332d578082015181840152602081019050613312565b60008484015250505050565b6000601f19601f8301169050919050565b6000613355826132f3565b61335f81856132fe565b935061336f81856020860161330f565b61337881613339565b840191505092915050565b6000602082019050818103600083015261339d818461334a565b905092915050565b6000819050919050565b6133b8816133a5565b81146133c357600080fd5b50565b6000813590506133d5816133af565b92915050565b6000602082840312156133f1576133f061322e565b5b60006133ff848285016133c6565b91505092915050565b600073ffffffffffffffffffffffffffffffffffffffff82169050919050565b600061343382613408565b9050919050565b61344381613428565b82525050565b600060208201905061345e600083018461343a565b92915050565b61346d81613428565b811461347857600080fd5b50565b60008135905061348a81613464565b92915050565b600080604083850312156134a7576134a661322e565b5b60006134b58582860161347b565b92505060206134c6858286016133c6565b9150509250929050565b6134d9816133a5565b82525050565b60006020820190506134f460008301846134d0565b92915050565b6000806000606084860312156135135761351261322e565b5b60006135218682870161347b565b93505060206135328682870161347b565b9250506040613543868287016133c6565b9150509250925092565b600081519050919050565b600082825260208201905092915050565b6000819050602082019050919050565b613582816133a5565b82525050565b61359181613428565b82525050565b600082825260208201905092915050565b60006135b3826132f3565b6135bd8185613597565b93506135cd81856020860161330f565b6135d681613339565b840191505092915050565b600060e0830160008301516135f96000860182613579565b50602083015161360c6020860182613588565b50604083015161361f6040860182613579565b506060830151848203606086015261363782826135a8565b9150506080830151848203608086015261365182826135a8565b91505060a083015184820360a086015261366b82826135a8565b91505060c083015161368060c0860182613579565b508091505092915050565b600061369783836135e1565b905092915050565b6000602082019050919050565b60006136b78261354d565b6136c18185613558565b9350836020820285016136d385613569565b8060005b8581101561370f57848403895281516136f0858261368b565b94506136fb8361369f565b925060208a019950506001810190506136d7565b50829750879550505050505092915050565b6000602082019050818103600083015261373b81846136ac565b905092915050565b600080fd5b600080fd5b7f4e487b7100000000000000000000000000000000000000000000000000000000600052604160045260246000fd5b61378582613339565b810181811067ffffffffffffffff821117156137a4576137a361374d565b5b80604052505050565b60006137b7613224565b90506137c3828261377c565b919050565b600067ffffffffffffffff8211156137e3576137e261374d565b5b6137ec82613339565b9050602081019050919050565b82818337600083830152505050565b600061381b613816846137c8565b6137ad565b90508281526020810184848401111561383757613836613748565b5b6138428482856137f9565b509392505050565b600082601f83011261385f5761385e613743565b5b813561386f848260208601613808565b91505092915050565b600080600080608085870312156138925761389161322e565b5b600085013567ffffffffffffffff8111156138b0576138af613233565b5b6138bc8782880161384a565b945050602085013567ffffffffffffffff8111156138dd576138dc613233565b5b6138e98782880161384a565b935050604085013567ffffffffffffffff81111561390a57613909613233565b5b6139168782880161384a565b9250506060613927878288016133c6565b91505092959194509250565b600060e08301600083015161394b6000860182613579565b50602083015161395e6020860182613588565b5060408301516139716040860182613579565b506060830151848203606086015261398982826135a8565b915050608083015184820360808601526139a382826135a8565b91505060a083015184820360a08601526139bd82826135a8565b91505060c08301516139d260c0860182613579565b508091505092915050565b600060208201905081810360008301526139f78184613933565b905092915050565b600060208284031215613a1557613a1461322e565b5b6000613a238482850161347b565b91505092915050565b613a35816132bd565b8114613a4057600080fd5b50565b600081359050613a5281613a2c565b92915050565b600060208284031215613a6e57613a6d61322e565b5b6000613a7c84828501613a43565b91505092915050565b60008060408385031215613a9c57613a9b61322e565b5b6000613aaa8582860161347b565b9250506020613abb85828601613a43565b9150509250929050565b60008060408385031215613adc57613adb61322e565b5b6000613aea858286016133c6565b9250506020613afb858286016133c6565b9150509250929050565b600067ffffffffffffffff821115613b2057613b1f61374d565b5b613b2982613339565b9050602081019050919050565b6000613b49613b4484613b05565b6137ad565b905082815260208101848484011115613b6557613b64613748565b5b613b708482856137f9565b509392505050565b600082601f830112613b8d57613b8c613743565b5b8135613b9d848260208601613b36565b91505092915050565b60008060008060808587031215613bc057613bbf61322e565b5b6000613bce8782880161347b565b9450506020613bdf8782880161347b565b9350506040613bf0878288016133c6565b925050606085013567ffffffffffffffff811115613c1157613c10613233565b5b613c1d87828801613b78565b91505092959194509250565b60008060408385031215613c4057613c3f61322e565b5b6000613c4e8582860161347b565b9250506020613c5f8582860161347b565b9150509250929050565b7f4e487b7100000000000000000000000000000000000000000000000000000000600052602260045260246000fd5b60006002820490506001821680613cb057607f821691505b602082108103613cc357613cc2613c69565b5b50919050565b6000606082019050613cde600083018661343a565b613ceb60208301856134d0565b613cf8604083018461343a565b949350505050565b7f5075626c6963204d696e7420436c6f7365640000000000000000000000000000600082015250565b6000613d366012836132fe565b9150613d4182613d00565b602082019050919050565b60006020820190508181036000830152613d6581613d29565b9050919050565b7f4e6f7420456e6f7567682046756e647300000000000000000000000000000000600082015250565b6000613da26010836132fe565b9150613dad82613d6c565b602082019050919050565b60006020820190508181036000830152613dd181613d95565b9050919050565b7f54686973206973206e6f7420616c6c6f77656421000000000000000000000000600082015250565b6000613e0e6014836132fe565b9150613e1982613dd8565b602082019050919050565b60006020820190508181036000830152613e3d81613e01565b9050919050565b600081905092915050565b6000613e5a826132f3565b613e648185613e44565b9350613e7481856020860161330f565b80840191505092915050565b6000613e8c8284613e4f565b915081905092915050565b7f54686973204e465420697320616c7265616479206d696e746564000000000000600082015250565b6000613ecd601a836132fe565b9150613ed882613e97565b602082019050919050565b60006020820190508181036000830152613efc81613ec0565b9050919050565b7f4e487b7100000000000000000000000000000000000000000000000000000000600052601160045260246000fd5b6000613f3d826133a5565b9150613f48836133a5565b9250828202613f56816133a5565b91508282048414831517613f6d57613f6c613f03565b5b5092915050565b7f4e487b7100000000000000000000000000000000000000000000000000000000600052601260045260246000fd5b6000613fae826133a5565b9150613fb9836133a5565b925082613fc957613fc8613f74565b5b828204905092915050565b6000613fdf826133a5565b9150613fea836133a5565b925082820390508181111561400257614001613f03565b5b92915050565b60008190508160005260206000209050919050565b60006020601f8301049050919050565b600082821b905092915050565b60006008830261406a7fffffffffffffffffffffffffffffffffffffffffffffffffffffffffffffffff8261402d565b614074868361402d565b95508019841693508086168417925050509392505050565b6000819050919050565b60006140b16140ac6140a7846133a5565b61408c565b6133a5565b9050919050565b6000819050919050565b6140cb83614096565b6140df6140d7826140b8565b84845461403a565b825550505050565b600090565b6140f46140e7565b6140ff8184846140c2565b505050565b5b81811015614123576141186000826140ec565b600181019050614105565b5050565b601f8211156141685761413981614008565b6141428461401d565b81016020851015614151578190505b61416561415d8561401d565b830182614104565b50505b505050565b600082821c905092915050565b600061418b6000198460080261416d565b1980831691505092915050565b60006141a4838361417a565b9150826002028217905092915050565b6141bd826132f3565b67ffffffffffffffff8111156141d6576141d561374d565b5b6141e08254613c98565b6141eb828285614127565b600060209050601f83116001811461421e576000841561420c578287015190505b6142168582614198565b86555061427e565b601f19841661422c86614008565b60005b828110156142545784890151825560018201915060208501945060208101905061422f565b86831015614271578489015161426d601f89168261417a565b8355505b6001600288020188555050505b505050505050565b600060a08201905061429b60008301886134d0565b6142a8602083018761343a565b6142b560408301866134d0565b81810360608301526142c7818561334a565b90506142d660808301846134d0565b9695505050505050565b7f4e487b7100000000000000000000000000000000000000000000000000000000600052603260045260246000fd5b7f54686973206973206e6f7420616c6c6f77656400000000000000000000000000600082015250565b60006143456013836132fe565b91506143508261430f565b602082019050919050565b6000602082019050818103600083015261437481614338565b9050919050565b7f4e6f7420656e6f7567682066756e647321000000000000000000000000000000600082015250565b60006143b16011836132fe565b91506143bc8261437b565b602082019050919050565b600060208201905081810360008301526143e0816143a4565b9050919050565b60006143f2826133a5565b91507fffffffffffffffffffffffffffffffffffffffffffffffffffffffffffffffff820361442457614423613f03565b5b600182019050919050565b6000815461443c81613c98565b61444681866132fe565b945060018216600081146144615760018114614477576144aa565b60ff1983168652811515602002860193506144aa565b61448085614008565b60005b838110156144a257815481890152600182019150602081019050614483565b808801955050505b50505092915050565b600060a0820190506144c860008301886134d0565b6144d5602083018761343a565b6144e260408301866134d0565b81810360608301526144f4818561442f565b905061450360808301846134d0565b9695505050505050565b7f457468657220746f6f206c6f7721000000000000000000000000000000000000600082015250565b6000614543600e836132fe565b915061454e8261450d565b602082019050919050565b6000602082019050818103600083015261457281614536565b9050919050565b7f4f7065726174696f6e204e6f7420416c6c6f7765642100000000000000000000600082015250565b60006145af6016836132fe565b91506145ba82614579565b602082019050919050565b600060208201905081810360008301526145de816145a2565b9050919050565b600081905092915050565b50565b60006146006000836145e5565b915061460b826145f0565b600082019050919050565b6000614621826145f3565b9150819050919050565b7f5061796d656e74206661696c6564000000000000000000000000000000000000600082015250565b6000614661600e836132fe565b915061466c8261462b565b602082019050919050565b6000602082019050818103600083015261469081614654565b9050919050565b600081519050919050565b600082825260208201905092915050565b60006146be82614697565b6146c881856146a2565b93506146d881856020860161330f565b6146e181613339565b840191505092915050565b6000608082019050614701600083018761343a565b61470e602083018661343a565b61471b60408301856134d0565b818103606083015261472d81846146b3565b905095945050505050565b60008151905061474781613264565b92915050565b6000602082840312156147635761476261322e565b5b600061477184828501614738565b91505092915050565b60006147868285613e4f565b91506147928284613e4f565b91508190509392505050565b60006040820190506147b3600083018561343a565b6147c060208301846134d0565b939250505056fea2646970667358221220c35486e463eedf0e4c43d03775a63400de4c5173a88feeb9c3597bb48053cba364736f6c63430008140033",
  "linkReferences": {},
  "deployedLinkReferences": {}
}